:020000040800F2
:100000000028002011020008AD010008B501000819
:10001000BD010008C5010008CD0100080000000076
:10002000000000000000000000000000D5010008F2
:10003000E101000800000000ED010008F9010008DE
:100040005902000859020008590200085902000824
:100050005902000859020008590200085902000814
:100060005902000859020008590200085902000804
:1000700059020008590200085902000859020008F4
:1000800059020008590200085902000859020008E4
:1000900059020008590200085902000859020008D4
:1000A00059020008590200085902000859020008C4
:1000B0005902000859020008000000005902000817
:1000C000590200080000000000000000590200086A
:1000D000000000005902000859020008000000005A
:1000E00059020008590200085902000800000000E7
:1000F0000000000000000000000000000000000000
:0C01000000000000000000005FF808F1A3
:10010C0010B5054C237833B9044B13B10448AFF345
:10011C0000800123237010BD0400002000000000AB
:10012C005403000808B5034B1BB103490348AFF354
:10013C00008008BD000000000800002054030008E7
:10014C0080B582B000AF00237B607B6801337B609D
:10015C007B68022B0AD800222021104800F0B8F846
:10016C00012240210D4800F0B3F80CE07B68042B11
:10017C0009D801222021094800F0AAF800224021C8
:10018C00064800F0A5F87B68042B01D900237B609E
:10019C004FF47A7000F078F8D7E700BF0008014000
:1001AC0080B400AF00BFFDE780B400AF00BFFDE737
:1001BC0080B400AF00BFFDE780B400AF00BFFDE727
:1001CC0080B400AF00BFFDE780B400AF00BFBD46F8
:1001DC0080BC704780B400AF00BFBD4680BC704788
:1001EC0080B400AF00BFBD4680BC704780B500AF87
:1001FC0000F02EF800BF80BD80B400AF00BFBD463C
:10020C0080BC7047FFF7F8FF0B480C490C4A0023E1
:10021C0002E0D458C4500433C4188C42F9D3094AB0
:10022C00094C002301E013600432A242FBD300F01E
:10023C0067F8FFF785FF70470000002004000020DE
:10024C00740300080400002024000020FEE70000D6
:10025C0080B400AF054B1B781A46054B1B68134442
:10026C00034A136000BFBD4680BC704700000020ED
:10027C002000002080B400AF024B1B681846BD461E
:10028C0080BC70472000002080B584B000AF78603F
:10029C00FFF7F0FFB8607B68FB60FB68B3F1FF3FD2
:1002AC0005D00A4B1B781A46FB681344FB6000BF51
:1002BC00FFF7E0FF0246BB68D31AFA689A42F7D8F8
:1002CC0000BF00BF1037BD4680BD00BF000000203E
:1002DC0080B483B000AF78600B467B8013467B7094
:1002EC007B78002B03D07A887B681A6103E07B88CB
:1002FC001A047B681A6100BF0C37BD4680BC70477E
:10030C0070B500260C4D0D4C641BA410A64209D1EF
:10031C0000F01AF800260A4D0A4C641BA410A642E1
:10032C0005D170BD55F8043B98470136EEE755F8FA
:10033C00043B98470136F2E76C0300086C03000895
:10034C006C03000870030008F8B500BFF8BC08BCCB
:10035C009E467047F8B500BFF8BC08BC9E46704777
:04036C003101000853
:040370000D01000873
:040374000100000084
:0400000508000211DC
:00000001FF
