:020000040800F2
:100000000028002049020008E5010008ED01000871
:10001000F5010008FD0100080502000800000000CD
:100020000000000000000000000000000D020008B9
:100030001902000800000000250200083102000833
:100040009102000891020008910200089102000844
:100050009102000891020008910200089102000834
:100060009102000891020008910200089102000824
:100070009102000891020008910200089102000814
:100080009102000891020008910200089102000804
:1000900091020008910200089102000891020008F4
:1000A00091020008910200089102000891020008E4
:1000B000910200089102000800000000910200086F
:1000C00091020008000000000000000091020008FA
:1000D00000000000910200089102000800000000EA
:1000E000910200089102000891020008000000003F
:1000F0000000000000000000000000000000000000
:0C01000000000000000000005FF808F1A3
:10010C0010B5054C237833B9044B13B10448AFF345
:10011C0000800123237010BD0400002000000000AB
:10012C008C03000808B5034B1BB103490348AFF31C
:10013C00008008BD00000000080000208C030008AF
:10014C0080B582B000AF00237B607B6801337B609D
:10015C007B68042B0FD8002220211E4800F0D4F815
:10016C00012240211B4800F0CFF8012280211948C0
:10017C0000F0CAF824E07B68062B0FD8012220215E
:10018C00144800F0C1F800224021124800F0BCF8DD
:10019C00012280210F4800F0B7F811E07B68092B91
:1001AC000ED8012220210B4800F0AEF8012240218C
:1001BC00084800F0A9F800228021064800F0A4F8B5
:1001CC007B68092B01D900237B604FF47A7000F017
:1001DC0077F8BAE70008014080B400AF00BFFDE734
:1001EC0080B400AF00BFFDE780B400AF00BFFDE7F7
:1001FC0080B400AF00BFFDE780B400AF00BFFDE7E7
:10020C0080B400AF00BFBD4680BC704780B400AF67
:10021C0000BFBD4680BC704780B400AF00BFBD4678
:10022C0080BC704780B500AF00F02EF800BF80BDD9
:10023C0080B400AF00BFBD4680BC7047FFF7F8FF2D
:10024C000B480C490C4A002302E0D458C450043328
:10025C00C4188C42F9D3094A094C002301E01360FD
:10026C000432A242FBD300F067F8FFF769FF704736
:10027C000000002004000020AC0300080400002053
:10028C0024000020FEE7000080B400AF054B1B7873
:10029C001A46054B1B681344034A136000BFBD4646
:1002AC0080BC7047000000202000002080B400AF0C
:1002BC00024B1B681846BD4680BC704720000020CE
:1002CC0080B584B000AF7860FFF7F0FFB8607B6852
:1002DC00FB60FB68B3F1FF3F05D00A4B1B781A4655
:1002EC00FB681344FB6000BFFFF7E0FF0246BB68EE
:1002FC00D31AFA689A42F7D800BF00BF1037BD4630
:10030C0080BD00BF0000002080B483B000AF7860D7
:10031C000B467B8013467B707B78002B03D07A884E
:10032C007B681A6103E07B881A047B681A6100BF42
:10033C000C37BD4680BC704770B500260C4D0D4C7B
:10034C00641BA410A64209D100F01AF800260A4D2D
:10035C000A4C641BA410A64205D170BD55F8043B91
:10036C0098470136EEE755F8043B98470136F2E71B
:10037C00A4030008A4030008A4030008A8030008B1
:10038C00F8B500BFF8BC08BC9E467047F8B500BF76
:08039C00F8BC08BC9E46704746
:0403A400310100081B
:0403A8000D0100083B
:0403AC00010000004C
:0400000508000249A4
:00000001FF
